:060000000A128A11F82F1C
:100D9A007030831603138F040F1408008B160B117F
:100DAA0083160313811281110108F839033881006F
:100DBA0083308312031381000800831203138C10FB
:100DCA000330920412158C1CEB2EEC2EE82E8C109C
:100DDA008316031307118710080083160317890166
:100DEA0007308316031385008312031385018316C4
:100DFA000313870183120313870108008316031361
:100E0A000715FA3092003F3083120313970517082B
:100E1A00F0390C3897000F309500CF3097058316BC
:100E2A0003138714831203131D08F0390C389D002D
:100E3A000F309B009D120800831603130508013822
:100E4A0085008316031708080138880083120313E4
:100E5A009F131F17831603139F121F129F138312C8
:100E6A0003139F121F129F111F111F144230F40007
:100E7A00F40B3D2F0000831203130C138316031384
:100E8A000C170B178B17831203139F1408000A12EF
:100E9A008A11F2260A128A110A128A11CD260A1218
:100EAA008A110A128A1121270A128A110A128A1130
:100EBA0003270A128A110A128A11E2260A128A11D1
:100ECA000A128A11D3260A128A11831203130C1FDB
:100EDA006F2F702FD02F1F0CF500750C0F39003AA9
:100EEA00031D782F792FA22F1E08F5000310750C09
:100EFA007C3E95001E080139F500F50EF50D170820
:100F0A007506DF3975069700831603131E08F50068
:100F1A0007300310F50CFF3E031D8E2F7508F600EF
:100F2A00F60E8312031317087606EF397606970032
:100F3A001F08C33904389F00C82F1E08F500031084
:100F4A00750C7C3E9B001E080139F500F50EF50D67
:100F5A001D087506DF3975069D00831603131E08E2
:100F6A00F50007300310F50CFF3E031DB72F750877
:100F7A00F600F60E831203131D087606EF3976067D
:100F8A009D00C3309F050D30F500F50BCA2F831263
:100F9A0003130C139F141E08F500F6017508F200DE
:100FAA007608F3000B1DDA2FDB2FE12F0130F00753
:100FBA000318F10A0030F10770087104031DE62FC7
:100FCA00E72FE92F87156A2F73087106031DEF2F84
:100FDA0072087006031DF22FF32F6A2F87116A2FEA
:100FEA000A128A110028F001F101F201F3018301CA
:060FFA000A128A114C2FBF
:08400000FF3FFF3FFF3FFF3FC0
:04400E00C420FF3F8C
:00000001FF
